S01200005457495F4D41535445522E73726563F3
S11300000C9434000C9451000C9451000C94510045
S11300100C9451000C9451000C9451000C94510018
S11300200C9451000C9451000C9451000C94510008
S11300300C9451000C9451000C9451000C945100F8
S11300400C9451000C9451000C9451000C945100E8
S11300500C9451000C9451000C9451000C945100D8
S11300600C9451000C94510011241FBECFEFD8E022
S1130070DEBFCDBF11E0A0E0B1E0E4E1F0E102C0F9
S113008005900D92A631B107D9F721E0A6E1B1E0C0
S113009001C01D92A234B207E1F70E9401020C9440
S11300A008080C9400000F931F93CF938B019C01BD
S11300B0C42F87B18F7C87B9443079F018F441306C
S11300C031F023C0403191F04034C9F01EC0E9EB57
S11300D0F0E080818C7F80831EC0E9EBF0E08081BA
S11300E08D7F808380818160808315C0E9EBF0E09F
S11300F080818E7F80838081826080830CC0E9EB65
S1130100F0E080818360808306C0E9EBF0E08081C9
S11301108C7F8083C1E060E074E284EF90E0A90109
S113012098010E94EE04CA01B90160517109810964
S113013091094C2F50E09A01220F331F032E000C1B
S1130140440B550B0E94EE042093B800ECEBF0E056
S1130150808184608083CF911F910F91089584EAF8
S11301608093BC008091BC008823E4F7089584E95F
S11301708093BC0008958093BB0084E88093BC0006
S11301808091BC008823E4F78091B900887F88318E
S113019031F0883231F0803429F481E0089581E02F
S11301A0089581E008959BB1282F30E0220F331F7A
S11301B0220F331F9370292B2BB995B19C7F829505
S11301C0869586958370892B85B9089595B19B7F13
S11301D095B90E94D30085B1886085B98FE99FE005
S11301E00197F1F700C0000085B1877F85B90895B4
S11301F084B18F6084B98AB18C6F8AB915B81BB881
S11302002FEF89EF90E0215080409040E1F700C04B
S1130210000080E30E94E6008FE19EE40197F1F77D
S113022000C0000080E30E94E6008FE99FE0019790
S1130230F1F700C0000080E30E94E6008FE99FE030
S11302400197F1F700C0000088E30E94E6008CE00B
S11302500E94E60086E00E94E60081E00E94E6003B
S11302608FE39FE10197F1F700C00000089595B175
S1130270946095B90E94D30085B1886085B98FE9EF
S11302809FE00197F1F700C0000085B1877F85B931
S11302900895CF93DF93EC0103C00E9437012196A8
S11302A088818111FACFDF91CF910895613011F4E3
S11302B0815801C081540E94E600089584B180628F
S11302C084B985B18F7D85B987B1816087B988B1DB
S11302D08E7F88B908954F925F926F927F928F922A
S11302E09F92AF92BF92CF92DF92EF92FF920F93C1
S11302F01F93CF93DF93CDB7DEB7A0970FB6F894D3
S1130300DEBF0FBECDBF6B017C01942E852E59013B
S11303100E94BD032B013C01072E000C880B990B96
S11303200E94F5039B01AC01C701B6010E94DE02E5
S11303306B017C015F924F9280E091E09F938F93D9
S11303401F9280E18F93CE0101969F938F930E9419
S113035010050FB6F894DEBF0FBECDBF00E010E06D
S11303600CC020E030E040E251E4C701B6010E9435
S113037081046B017C010F5F1F4F0A151B058CF371
S1130380C701B6010E94BD037F936F9380E091E0A3
S11303909F938F931F9280E18F938E010F5E1F4F67
S11303A01F930F930E9410051F930F93CE01019684
S11303B09F938F9383E091E09F938F931F9280E2AA
S11303C08F938F929F920E9410050FB6F894DEBF10
S11303D00FBECDBFA0960FB6F894DEBF0FBECDBF43
S11303E0DF91CF911F910F91FF90EF90DF90CF900D
S11303F0BF90AF909F908F907F906F905F904F9041
S1130400089541E068EE73E080E090E00E945300BC
S11304100E945E010E94F80061E084E00E9456019F
S113042089E091E00E9449018FE091E00E94490136
S113043085B1806285B90E94AF0080E68093200177
S11304400E94BB0080932101813019F00E94B70003
S11304505BC082E50E94BB000E94B7002FEF89E6D3
S113046098E1215080409040E1F700C0000085B140
S11304708F7D85B90E94AF0081E6809320010E94A0
S1130480BB0080932101813011F00E94B70084E801
S11304908093BC008091BC008823E4F78091BB006A
S11304A080931E010E94B70060911E0170E080E0FD
S11304B090E00E94F50320E030E040EA50E40E941E
S11304C0810420E030E04FE753E40E944B03609343
S11304D01A0170931B0180931C0190931D0122E06B
S11304E030E042E251E00E946B0162E083E00E944E
S11304F0560182E291E00E94490162E087E00E9495
S1130500560186E50E94370188B1816088B90E944E
S1130510AF0080E8809320010E94BB0080932101FA
S1130520813019F00E94B70083CF83E40E94BB009E
S11305300E94B7002FEF89E698E121508040904057
S1130540E1F700C0000088B18E7F88B90E94AF0037
S113055081E8809320010E94BB00809321018130B7
S113056011F00E94B70084E88093BC008091BC0025
S11305708823E4F78091BB0080931E010E94B7009A
S113058060911E0170E080E090E00E94F3036093AC
S1130590160170931701809318019093190122E0BA
S11305A030E042E351E00E946B0162E08BE00E9484
S11305B0560182E391E00E9449013ACF5058BB278B
S11305C0AA270E94F6020C9447040E94390438F0CA
S11305D00E94400420F039F49F3F19F426F40C944F
S11305E036040EF4E095E7FB0C943004E92F0E94E6
S11305F0580458F3BA17620773078407950720F065
S113060079F4A6F50C947A040EF4E0950B2EBA2F27
S1130610A02D0B01B90190010C01CA01A001112404
S1130620FF27591B99F0593F50F4503E68F11A16B0
S1130630F040A22F232F342F4427585FF3CF469541
S113064037952795A795F0405395C9F77EF41F1663
S1130650BA0B620B730B840BBAF09150A1F0FF0F2D
S1130660BB1F661F771F881FC2F70EC0BA0F621F19
S1130670731F841F48F4879577956795B795F79509
S11306809E3F08F0B0CF9395880F08F09927EE0F9E
S11306909795879508950E945F030C9447040E94E0
S11306A0400458F00E94390440F029F45F3F29F0D7
S11306B00C94300451110C947B040C9436040E9465
S11306C0580468F39923B1F3552391F3951B550B03
S11306D0BB27AA2762177307840738F09F5F5F4F11
S11306E0220F331F441FAA1FA9F335D00E2E3AF050
S11306F0E0E832D091505040E695001CCAF72BD068
S1130700FE2F29D0660F771F881FBB1F26173707B8
S11307104807AB07B0E809F0BB0B802DBF01FF27EA
S113072093585F4F3AF09E3F510578F00C94300493
S11307300C947B045F3FE4F3983ED4F3869577955D
S11307406795B795F7959F5FC9F7880F911D9695A3
S1130750879597F90895E1E0660F771F881FBB1FFF
S1130760621773078407BA0720F0621B730B840BAC
S1130770BA0BEE1F88F7E09508950E94C4036894AD
S1130780B1110C947B0408950E94600488F09F5773
S113079098F0B92F9927B751B0F0E1F0660F771FA1
S11307A0881F991F1AF0BA95C9F714C0B13091F097
S11307B00E947A04B1E008950C947A04672F782F8C
S11307C08827B85F39F0B93FCCF38695779567955C
S11307D0B395D9F73EF490958095709561957F4FC8
S11307E08F4F9F4F0895E89409C097FB3EF490956E
S11307F08095709561957F4F8F4F9F4F9923A9F0F6
S1130800F92F96E9BB279395F69587957795679584
S1130810B795F111F8CFFAF4BB0F11F460FF1BC0C8
S11308206F5F7F4F8F4F9F4F16C0882311F096E95B
S113083011C0772321F09EE8872F762F05C0662309
S113084071F096E8862F70E060E02AF09A95660FC2
S1130850771F881FDAF7880F9695879597F908957B
S113086097F99F6780E870E060E008959FEF80EC5F
S1130870089500240A941616170618060906089502
S113088000240A9412161306140605060895092E68
S11308900394000C11F4882352F0BB0F40F4BF2BD7
S11308A011F460FF04C06F5F7F4F8F4F9F4F089517
S11308B057FD9058440F551F59F05F3F71F047950D
S11308C0880F97FB991F61F09F3F79F087950895F2
S11308D0121613061406551FF2CF4695F1DF08C011
S11308E0161617061806991FF1CF8695710561052E
S11308F008940895E894BB2766277727CB0197F9D6
S113090008950E9494040C9447040E94390438F01A
S11309100E94400420F0952311F00C9430040C94B0
S1130920360411240C947B040E94580470F3959FA0
S1130930C1F3950F50E0551F629FF001729FBB27D2
S1130940F00DB11D639FAA27F00DB11DAA1F649F6E
S11309506627B00DA11D661F829F2227B00DA11D21
S1130960621F739FB00DA11D621F839FA00D611DA7
S1130970221F749F3327A00D611D231F849F600DC8
S1130980211D822F762F6A2F11249F5750409AF0F1
S1130990F1F088234AF0EE0FFF1FBB1F661F771F7D
S11309A0881F91505040A9F79E3F510580F00C9448
S11309B030040C947B045F3FE4F3983ED4F38695B3
S11309C077956795B795F795E7959F5FC1F7FE2BE8
S11309D0880F911D9695879597F90895A1E21A2E8F
S11309E0AA1BBB1BFD010DC0AA1FBB1FEE1FFF1FCF
S11309F0A217B307E407F50720F0A21BB30BE40B1F
S1130A00F50B661F771F881F991F1A9469F7609565
S1130A107095809590959B01AC01BD01CF0108951F
S1130A20AEE0B0E0E6E1F5E00C94DF070D891E8945
S1130A308F89988D26E02C831A83098397FF02C03F
S1130A4080E090E801979E838D83AE01455E5F4F01
S1130A50698D7A8DCE0101960E9440054D815E819B
S1130A6057FD0AC02F813885421753070CF49A01A9
S1130A70F801E20FF31F10822E96E4E00C94FB07BA
S1130A80ABE0B0E0E6E4F5E00C94D1076C017B0147
S1130A908A01FC0117821682838181FFCCC1CE01B9
S1130AA001963C01F6019381F70193FD859193FF33
S1130AB081917F01882309F4BAC1853239F493FD09
S1130AC0859193FF81917F01853229F4B60190E0ED
S1130AD00E943707E7CF912C212C312CFFE1F3152D
S1130AE0D8F08B3279F038F4803279F08332A1F483
S1130AF0232D20611DC08D3261F0803369F4232DD4
S1130B00216016C0832D8260382EE32DE4603E2ED2
S1130B102AC0F32DF8601DC037FC2DC020ED280F2E
S1130B202A3040F08E32B9F436FC81C1232D206482
S1130B30322E19C036FE06C08AE0989E200D11247C
S1130B40922E11C0EAE02E9E200D1124222EF32DA8
S1130B50F0623F2E08C08C3621F4832D8068382E35
S1130B6002C0883641F4F70193FD859193FF81918A
S1130B707F018111B3CF982F9F7D9554933028F432
S1130B800C5F1F4F9FE399830DC0833631F0833789
S1130B9071F0833509F059C021C0F801808189833F
S1130BA00E5F1F4F88248394912C530113C0280196
S1130BB0F2E04F0E511CF801A080B18036FE03C054
S1130BC0692D70E002C06FEF7FEFC5010E942C0712
S1130BD04C018201F32DFF773F2E16C0280122E03D
S1130BE0420E511CF801A080B18036FE03C0692D6D
S1130BF070E002C06FEF7FEFC5010E9421074C0136
S1130C00F32DF0683F2E820133FC1BC0822D90E04F
S1130C1088169906B0F4B60180E290E00E94370786
S1130C202A94F4CFF50137FC859137FE81915F0159
S1130C30B60190E00E94370721102A9421E0821A1D
S1130C4091088114910471F7E8C0843611F0893653
S1130C5041F5F80137FE07C060817181828193817B
S1130C600C5F1F4F08C060817181072E000C880B38
S1130C70990B0E5F1F4FF32DFF763F2E97FF09C090
S1130C8090958095709561957F4F8F4F9F4FF06839
S1130C903F2E2AE030E0A3010E947307882E8618B5
S1130CA045C0853731F4232D2F7EB22E2AE030E063
S1130CB025C0932D997FB92E8F36C1F018F488354D
S1130CC079F0B5C0803719F0883721F0B0C0E92F2A
S1130CD0E061BE2EB4FE0DC0FB2DF460BF2E09C032
S1130CE034FE0AC0292F2660B22E06C028E030E068
S1130CF005C020E130E002C020E132E0F801B7FE97
S1130D0007C060817181828193810C5F1F4F06C08F
S1130D106081718180E090E00E5F1F4FA3010E940B
S1130D207307882E8618FB2DFF773F2E36FE0DC0E5
S1130D30232D2E7FA22E891458F434FE0BC032FCCE
S1130D4009C0832D8E7EA82E05C0B82CA32C03C009
S1130D50B82C01C0B92CA4FE0FC0FE01E80DF11D92
S1130D608081803321F49A2D997EA92E09C0A2FE98
S1130D7006C0B394B39404C08A2D867809F0B39462
S1130D80A3FC11C0A0FE06C0B21488F4280C922C57
S1130D909B180EC0B21460F4B60180E290E00E9489
S1130DA03707B394F7CFB21418F42B1802C0982C59
S1130DB0212CA4FE10C0B60180E390E00E94370706
S1130DC0A2FE17C0A1FC03C088E790E002C088E53A
S1130DD090E0B6010CC08A2D867859F0A1FE02C0BD
S1130DE08BE201C080E2A7FC8DE2B60190E00E9494
S1130DF03707891438F4B60180E390E00E9437077E
S1130E009A94F7CF8A94F301E80DF11D8081B6011D
S1130E1090E00E9437078110F5CF222009F442CEDA
S1130E20B60180E290E00E9437072A94F6CFF601DB
S1130E308681978102C08FEF9FEF2B96E2E10C949D
S1130E40ED07FC010590615070400110D8F78095C2
S1130E5090958E0F9F1F0895FC0161507040019082
S1130E600110D8F7809590958E0F9F1F08950F93CA
S1130E701F93CF93DF93FB01238121FD03C08FEFE9
S1130E809FEF2CC022FF16C04681578124813581F3
S1130E904217530744F4A081B1819D012F5F3F4F56
S1130EA0318320838C93268137812F5F3F4F378393
S1130EB0268314C08B01EC01FB010084F185E02D35
S1130EC00995892BE1F6D80116968D919C91179777
S1130ED0019617969C938E931697CE01DF91CF912E
S1130EE01F910F910895FA01AA27283051F120315A
S1130EF081F1E8946F936E7F6E5F7F4F8F4F9F4FAA
S1130F00AF4FB1E03ED0B4E03CD0670F781F891FEB
S1130F109A1FA11D680F791F8A1F911DA11D6A0FB9
S1130F20711D811D911DA11D20D009F468943F916C
S1130F302AE0269F11243019305D3193DEF6CF016B
S1130F400895462F4770405D4193B3E00FD0C9F731
S1130F50F6CF462F4F70405D4A3318F0495D31FD9E
S1130F604052419302D0A9F7EACFB4E0A6959795F1
S1130F70879577956795BA95C9F7009761057105C7
S1130F8008959B01AC010A2E069457954795379511
S1130F902795BA95C9F7620F731F841F951FA01D6B
S1130FA008952F923F924F925F926F927F928F9209
S1130FB09F92AF92BF92CF92DF92EF92FF920F93E4
S1130FC01F93CF93DF93CDB7DEB7CA1BDB0B0FB6EE
S1130FD0F894DEBF0FBECDBF09942A8839884888AB
S1130FE05F846E847D848C849B84AA84B984C88441
S1130FF0DF80EE80FD800C811B81AA81B981CE0F38
S1131000D11D0FB6F894DEBF0FBECDBFED0108951C
S1071010F894FFCF7E
S113101425640025732E25730053313A20200020C3
S10910242053323A2000C3
S9030000FC
